:0600000000308A00122806
:10000800FF00030883120313D9000408DA000A0862
:10001800DB007E08DC000A128A1194283E30840036
:1000280049300A128A1137200A128A11C030840016
:10003800F0300A128A1137200A128A1183174030C9
:10004800840070300A128A1137200A128A1170301F
:1000580084007E300A128A1137200A128A1183011D
:100068000A128A113F2864008001840A04060319D1
:100078000034040638280A128A11F7210A128A1154
:100088000A128A11BB230A128A11831203131F1939
:100098004E284F285D280C1B522853285D280A1229
:1000A8008A11B2230A128A110A128A111A230A1211
:1000B8008A110A128A1198230A128A11003A03191E
:1000C8006628672890280A128A11D0220A128A11F3
:1000D800831203134C08C9004D08CA004E08CB0010
:1000E800CA08031D7828792885284908CC004A08B9
:1000F800CD004B08CE000A128A113D230A128A113C
:1001080090284908CC004A08CD004B08CE000A12B6
:100118008A11F7220A128A1149280A128A1112280A
:10012800831603130C1F99289A28A82883120313EF
:100138000C1F9F28A028A8280A128A113D210A12FC
:100148008A11831203130C1383128B1DAC28AD285C
:10015800B9280B1CB028B128B9280A128A117D22A7
:100168000A128A11831203130B10831603138C1EB1
:10017800BE28BF28CD28831203138C1EC428C52887
:10018800CD280A128A1184210A128A1183120313B4
:100198008C1283120B1ED128D228DE288B1CD5285E
:1001A800D628DE280A128A11E9200A128A11831237
:1001B80003138B105C08FE005B088A005A08840051
:1001C80059088300FF0E7F0E0900031086180314D8
:1001D800F10C0130DD005D08F2077208083A031DD2
:1001E800F628F7283C29F708031DFB28FC280129D5
:1001F8007108DD005D08F30021297708013A031D25
:10020800062907290C297108DD005D08F400212959
:100218007708023A031D1129122921297108DD00E6
:100228005D08F5007308E5007408E6007508E70046
:100238000A128A11A7220A128A11031083120313C1
:10024800003003180130F2000310003003180130A9
:10025800F1000130DD005D08F70703307702031C69
:10026800362937293C290310003003180130F700DC
:1002780008001E08DE007008413E84008313000851
:10028800DD005E08DF005E08E000DF08031D4D2981
:100298004F290130DF026008FF3A03195429552914
:1002A80059290130E4006408E0075F085D02031C77
:1002B8005E295F2965295D0860020318642965299C
:1002C80083295E08E4007008413E840064088000C9
:1002D8007008013EE1000310003003180130E2000D
:1002E8005E08E4006408E3006108E5006208E600CF
:1002F8006308E7000A128A11A7220A128A11080065
:100308001A08DD00FC08031D8A298B2991295D083C
:100318008313DE005E08BE00B3297C08013A031D82
:10032800962997299D295D088313DE005E08BF0082
:10033800B3297C08023A031DA229A329B3295D0821
:100348008313DE005E08C0003E08E5003F08E600B3
:100358004008E7000A128A11A7220A128A110130FE
:1003680083120313DE005E08FC0703307C02031CC3
:10037800BE29BF29C4290310003003180130FC002E
:100388000800D1000310003003180130D200CC2936
:100398005118CF29D329831203138615D62983121E
:1003A800031386110310D10C5330D300D30BDA2971
:1003B8008312031306155330D300D30BE12983129C
:1003C800031306115330D300D30BE82901308312ED
:1003D8000313D3005308D20708305202031CF5292F
:1003E800F629CC2908008030831603138100603079
:1003F8008C00073089002F308500C03087004830D6
:10040800831203138B0081309F000310831603139C
:100418000030031801309F00F330860003100030CD
:100428000318013088002430980090308312031399
:1004380098008130831603139900831203138B17D6
:100448000800003083120313D7000030D800531C73
:100458002E2A2F2A352A5508D7070318D80A5608EE
:10046800D80701300310D50DD60DFF3E031D362ADF
:1004780001300310D40CD30CFF3E031D3D2A540851
:100488005304031D482A492A2B2A5708D301D307A6
:100498005808D401D407502A0800003083120313E7
:1004A800ED000030EE00691C5A2A5B2A612A6B08AD
:1004B800ED070318EE0A6C08EE0701300310EB0D88
:1004C800EC0DFF3E031D622A01300310EA0CE90C13
:1004D800FF3E031D692A6A086904031D742A752AE8
:1004E800572A6D08E901E9076E08EA01EA077C2A3C
:1004F80008008230E100DD30E000E00B812AE10BEA
:10050800812A862A093083120313DD000310003084
:1005180003180130DE000608E00004300310E00C88
:10052800FF3E031D922A6008E1006108DF005D08B4
:10053800E5005E08E6005F08E7000A128A11A722B4
:100548000A128A1108000330E9007B080A128A118E
:1005580060230A128A11C03E8400831203136508BF
:1005680083138000840A66088000840A6708800074
:100578007B08013EE8006808FD000F30E8006808C5
:10058800FD057D087A060319CA2ACB2ACF2A7D08D9
:10059800E8006808FB000800033083120313D30047
:1005A8007A080A128A117C230A128A11C03E840032
:1005B8008312031383130008CF00840A0008D000B5
:1005C800840A0008D1000130D2005208FA070F301F
:1005D800D2005208FA054F08CC005008CD00510847
:1005E800CE00F62A08004C0883130A128A11C52186
:1005F8000A128A11831203134D080A128A11C5219F
:100608000A128A11831203134E080A128A11C5218D
:100618000A128A11831203134130D000EE30CF0042
:10062800CF0B142BD00B142B64000800C730831297
:100638000313CC004C089F057008CC00023003104F
:10064800CC0DFF3E031D232B03104C0DCD004D0890
:100658009F040C13831603130C17831203130B1731
:100668008B172130CC00CC0B372B831203131F15AB
:1006780008004C0883130A128A11A7230A128A1148
:10068800831203134D080A128A11A7230A128A112A
:10069800831203134E080A128A11A7230A128A1119
:1006A800831203134130D000EE30CF00CF0B5A2B0A
:1006B800D00B5A2B64000800EB000310003003181D
:1006C8000130EA006B1C692B6A2B6F2B69088313B6
:1006D800D6005608EA070310E90D0310EB0CEB08E7
:1006E800031D772B782B662B6A0883137B2B080056
:1006F800D4000310003003180130D500541C852B9A
:10070800862B8B2B53088313D6005608D507031066
:10071800D30D0310D40CD408031D932B942B822BD8
:1007280055088313972B0800831203137B087A025A
:1007380003189F2BA02BA32B7A087B02A62B7B08E0
:100748007A02A62B0800D100AA2BAA2B0C1EAD2BCF
:10075800AE2BA92B51088313990008000130CC0057
:100768004C08F0070730CC004C08F005080083124D
:0A0778000313061186110B1608008A
:02400E00323F3F
:00000001FF
