:020000000F28C7
:10000800CF00030883129300040894000A0895009F
:100018004E0896008F283D3084000030CE007F3097
:10002800CF0020208000840A04084D3A03192428B0
:10003800CF0A0319CE0A15284E088A004F088200F5
:100048004D3084004E302920312864008001840A14
:1000580004060319003404062A28E6208312FF3018
:10006800860000308C0000308D003A2801308C0763
:1000780003188D0A00308D070D08803A8E008030F5
:100088000E02031D492864300C02031C4C284D281D
:100098003A2800308C0000308D0052280C08831359
:1000A8003D3E8400013080020C083D3E84008008FB
:1000B800031D5F2860286A280C08453E8400000854
:1000C8008E000C083D3E84000E08800001308C072D
:1000D80003188D0A00308D070D08803A8E00803095
:1000E8000E02031D792808300C02031C7C287D2889
:1000F800522835280F286434643464346434323424
:1001080032343234323464346434643464343234EF
:100118003234323432348B1E92289328DB280B1D5C
:1001280096289728DB2800308F00003090009C2804
:100138000F0883133D3E84004D0800020318A528CC
:10014800A628B428013091000F0AAC280310910D9D
:10015800FF3E031DAA281108FF3A920012088605DF
:1001680001308F070318900A003090071008803A72
:10017800910080301102031DC32808300F02031CB0
:10018800C628C7289C28013091001108CD07653082
:100198004D02031CD028D128D828FF308600031030
:1001A800003003180130CD00643081000B111608AF
:1001B800CE0015088A001408840013088300CF0EA7
:1001C8004F0E090020308B008030831681001F30CD
:1001D80085000310003003180130860083128B1647
:0401E8008B17080069
:02400E00F13F80
:00000001FF
