:0600000000308A00102808
:10000800FF000308F4000408F5000A08F6007E085B
:10001800F7000A128A1198280A128A1113280A125C
:100028008A1156200A128A1141300A128A118C202C
:100038000A128A118312031306140030F0000030EC
:10004800F10026280130F0070318F10A0030F10703
:100058007108803AF200A7307202031D352810306B
:100068007002031C38283928262806100030F000B2
:100078000030F1003F280130F0070318F10A003082
:10008800F1077108803AF200A7307202031D4E286A
:1000980010307002031C512852283F2818280A12D1
:1000A8008A11102880308316031381000310003052
:1000B800031801308C000310003003180130890048
:1000C80003100030031801308500C030870003108A
:1000D800831203130030031801308B0003108316BA
:1000E8000313003003180130860003100030031892
:1000F8000130880024309800803083120313980060
:100108008130831603139900831203138B17080099
:10011800F3008F288F28831203130C1E9428952828
:100128008E287308990008007708FE0076088A0070
:0E0138007508840074088300FF0E7F0E090016
:02400E00323F3F
:00000001FF
