:0600000000308A00122806
:10000800FF00030883120313B2000408B3000A08B0
:10001800B4007E08B5000A128A119F29C0308400F6
:10002800F0300A128A112F200A128A1183174030E1
:10003800840070300A128A112F200A128A11723035
:1000480084007E300A128A112F200A128A11830135
:100058000A128A11372864008001840A04060319E9
:10006800003404063028C330A400CD30A300A30B0D
:100078003B28A40B3B2883120313C330A400CD30C4
:10008800A300A30B4528A40B452883120313C330F0
:10009800A400CD30A300A30B4F28A40B4F28831234
:1000A8000313C330A400CD30A300A30B5928A40B1D
:1000B80059280A128A1140220A128A110A128A1130
:1000C800A8220A128A110A128A1199220A128A117E
:1000D800003A03197028712892280A128A11F4210B
:1000E8000A128A11831203132508A0002608A1000A
:1000F8002708A20021080B3A031D83288428872893
:100108002208880092282008A5002108A6002208B5
:10011800A7000A128A111D220A128A1167280A12D8
:100128008A111228031086180314F30C0130B60044
:100138003608F2077208083A031DA328A428E928FC
:10014800FD08031DA828A928AE287308B60036089C
:10015800F500CE287D08013A031DB328B428B92834
:100168007308B6003608F600CE287D08023A031D4B
:10017800BE28BF28CE287308B6003608F7007508D1
:10018800BB007608BC007708BD000A128A117421EA
:100198000A128A1103108312031300300318013066
:1001A800F2000310003003180130F3000130B600EC
:1001B8003608FD0703307D02031CE328E428E928FC
:1001C8000310003003180130FD000800AA000310D6
:1001D800003003180130AB00F1282A18F428F82859
:1001E800831203138615FB28831203138611031049
:1001F800AA0C5330AC00AC0BFF288312031306156E
:100208005330AC00AC0B062983120313061153308C
:10021800AC00AC0B0D29013083120313AC002C0881
:10022800AB0708302B02031C1A291B29F1280800E8
:10023800003083120313C3000030C4003F1C25297B
:1002480026292C294108C3070318C40A4208C407F1
:1002580001300310C10DC20DFF3E031D2D290130D1
:100268000310C00CBF0CFF3E031D342940083F0497
:10027800031D3F29402922294308BF01BF0744081D
:10028800C001C00747290800003083120313B000DB
:100298000030B1002C1C5129522958292E08B007CA
:1002A8000318B10A2F08B10701300310AE0DAF0DC6
:1002B800FF3E031D592901300310AD0CAC0CFF3E65
:1002C800031D60292D082C04031D6B296C294E2958
:1002D8003008AC01AC073108AD01AD07732908003F
:1002E8000330BF0074080A128A117D220A128A118B
:1002F800403E8400831203133B0883178000840A5E
:100308003C0883178000840A3D088317800074081E
:10031800013EBE003E08FC000F30BE003E08FC0552
:100328007C087B06031999299A299E297C08BE0016
:100338003E08F40008008B1DA229A329AF290B1C35
:10034800A629A729AF290A128A11CA210A128A11D5
:10035800831203130B100B1EB229B329BF298B1C60
:10036800B629B729BF290A128A1196200A128A11BA
:10037800831203138B103508FE0034088A003308F3
:10038800840032088300FF0E7F0E09008230BA0015
:10039800DD30B900B90BCE29BA0BCE29D3290A30E2
:1003A80083120313B6000310003003180130B7009E
:1003B8000608B90004300310B90CFF3E031DDF29FD
:1003C8003908BA003A08B8003608BB003708BC003C
:1003D8003808BD000A128A1174210A128A1108000D
:1003E800033083120313AC007B080A128A116122BE
:1003F8000A128A11403E84008312031383170008EF
:10040800A800840A83170008A900840A8317000833
:10041800AA000130AB002B08FB070F30AB002B08FC
:10042800FB052808A5002908A6002A08A7001C2AF9
:100438000800250883130A128A11EA200A128A1171
:100448008312031326080A128A11EA200A128A1153
:100458008312031327080A128A11EA200A128A1142
:10046800831203134130A900EE30A800A80B3A2AE2
:10047800A90B3A2A64000800803083160313810010
:1004880003100030031801308900031000300318EE
:1004980001308500C03087000830831203138B00B9
:1004A800F33083160313860003100030031801305D
:1004B8008800831203138B170800AD000310003067
:1004C80003180130AE002D1C6A2A6B2A702A2C08EA
:1004D8008313AF002F08AE070310AC0D0310AD0C4B
:1004E800AD08031D782A792A672A2E0883137C2AE7
:1004F8000800C1000310003003180130C000411C7F
:10050800862A872A8C2A3F088313AF002F08C00742
:100518000310BF0D0310C10CC108031D942A952AAE
:10052800832A40088313982A080083120313740847
:100538007B020318A02AA12AA42A7B087402A72AEE
:1005480074087B02A72A0800831203130611861178
:040558000B16080076
:02400E00723FFF
:00000001FF
