:020000000E28C8
:10000800FF000308F3000408F4000A08F5007E085E
:10001800F60058280F2846208312031306140030D0
:10002800F0000030F10018280130F0070318F10A39
:100038000030F1077108803AF2008F307202031D18
:100048002728A0307002031C2A282B2818280610FD
:100058000030F0000030F10031280130F0070318BB
:10006800F10A0030F1077108803AF2008F3072020D
:10007800031D4028A0307002031C4328442831285F
:1000880010280E2803100030031801308B00803030
:100098008316031381000310003003180130860013
:1000A800831203138B1708007608FE0075088A0070
:0E00B8007408840073088300FF0E7F0E090099
:02400E00013F70
:00000001FF
