:020000000F28C7
:10000800CF00030883129100040892000A089300A5
:100018004E08940047284A3084004E3014201C288B
:1000280064008001840A04060319003404061528B4
:100038007620031083120030031801308500031066
:1000480000300318013086004D1C2B282C28452829
:100058004C0885004B088D004A088C0002308E0041
:100068000D0D8D0C8C0C8E0B34280C08860003109B
:10007800003003180130CC000030CA000030CB003B
:100088004D1028280F288B1C4A284B286B28031052
:10009800051A03140030031801308F0090010F086F
:1000A800CA041008CB0401308F000F08CC074C0895
:1000B8000B3A031D6028612863284D146A28013013
:1000C8000310CA0DCB0DFF3E031D64288B101408C6
:1000D800CE0013088A001208840011088300CF0E8E
:1000E8004F0E090003100030031801308B008030D8
:1000F80083168100103085000130860001138312B9
:060108000B168B17080026
:02400E00F13F80
:00000001FF
