:0600000000308A00122806
:10000800FF00030883120313E5000408E6000A084A
:10001800E7007E08E8000A128A11AA28383084000E
:1000280058300A128A1127200A128A1183177B3046
:1000380084007E300A128A1127200A128A1183014D
:100048000A128A112F2864008001840A0406031901
:100058000034040628280A128A1116210A128A1165
:100068000A128A1185210A128A1183120313C330D6
:10007800DB00CD30DA00DA0B3F28DB0B3F28831298
:100088000313C330DB00CD30DA00DA0B4928DB0B71
:10009800492883120313C330DB00CD30DA00DA0BB2
:1000A8005328DB0B532883120313C330DB00CD30F6
:1000B800DA00DA0B5D28DB0B5D2883120313C330EB
:1000C800DB00CD30DA00DA0B6728DB0B67288312F8
:1000D8000313C330DB00CD30DA00DA0B7128DB0BF9
:1000E80071280A128A1176210A128A11003A031914
:1000F8007E287F28A6280A128A1159210A128A11F5
:10010800831203135C08D801D8075D08D901D90701
:10011800580883130A128A11E4200A128A118312DA
:10012800031359080A128A11E4200A128A11831249
:1001380003134130DB00EE30DA00DA0BA128DB0BC9
:10014800A128640075280A128A1112288B1DAD286F
:10015800AE28D9280B1CB128B228D9288230E4004F
:10016800DD30E300E30BB628E40BB628BB281230D9
:1001780083120313E1000608E30004300310E30CC4
:10018800FF3E031DC2286308E4006408E20061081A
:10019800E901E9076208EA01EA070A128A113A2125
:1001A8000A128A11831203130B106808FE006708ED
:1001B8008A006608840065088300FF0E7F0E090028
:1001C800DC000310003003180130DD00EB285C1858
:1001D800EE28F228831203138615F52883120313D9
:1001E80086110310DC0C5330DE00DE0BF928831275
:1001F800031306155330DE00DE0B002983120313A8
:1002080006115330DE00DE0B072901308312031379
:10021800DE005E08DD0708305D02031C142915297D
:10022800EB28080080308316031381000310003088
:1002380003180130890003100030031801308500CD
:1002480003100030031801308700083083120313AD
:100258008B00F03083160313860003100030031858
:1002680001308800831203138B1708007B08EB000A
:100278006B07383E8400690883138000840A6A0883
:1002880080007B08013EEB006B08FC000F30EB00A0
:100298006B08FC057C087D06031953295429582945
:1002A8007C08EB006B08FB000800831203137D0831
:1002B800E0006007383E840083130008DE00840AEB
:1002C8000008DF000130E0006008FD070F30E000A3
:1002D8006008FD055E08DC01DC075F08DD01DD075D
:1002E80075290800831203137B087D0203187D29F2
:1002F8007E2981297D087B0284297B087D02842947
:0C03080008008312031306118611080080
:02400E00323F3F
:00000001FF
