:020000000E28C8
:10000800FF000308F4000408F5000A08F6007E085B
:10001800F70075280F284F20831203130608F039BC
:10002800F20005080F3972048020831203130614A6
:100038000030F0000030F10021280130F0070318EB
:10004800F10A0030F1077108803AF2008F3072022D
:10005800031D3028A0307002031C332834282128BF
:1000680006100030F0000030F1003A280130F007A7
:100078000318F10A0030F1077108803AF2008F3056
:100088007202031D4928A0307002031C4C284D2819
:100098003A2810280E2803100030031801308B006E
:1000A80080308316031381000310003003180130D9
:1000B8008C000730831203139F00BF30831603138D
:1000C8008500F630860024309800803083120313B0
:1000D80098001930831603139900831203138B17A2
:1000E80008007708FE0076088A00750884007408FE
:1000F8008300FF0E7F0E0900F300832883280C1E5F
:0C010800862887288228730899000800C8
:02400E00293F48
:00000001FF
