:020000000F28C7
:10000800CF00030883128E0004088F000A089000AE
:100018004E0891003928493084004E3014201C289D
:1000280064008001840A04060319003404061528B4
:1000380030218316011383120B168B124D1C2528B1
:10004800262837284B088C00013003108C0DFF3E02
:10005800031D292803100C0D86004D1003100030D5
:1000680003180130CB0022280F288B1E3C283D287E
:1000780059280B1D4028412859280130C907031861
:10008800CA0A0030CA074A08803A8D0080300D023B
:10009800031D502847304902031C53285428582868
:1000A8000030C9000030CA000B118B1C5C285D2889
:1000B800252901308D000D08CB074B08013A031D97
:1000C8006628672872280310003003180130CC0016
:1000D8000310003003180130860024294B08023A27
:1000E800031D772878287F280030051A01308D00F5
:1000F8000D08CC0424294B08033A031D84288528BD
:1001080094280030051A02308D000D08CC04051A19
:100118008E28912883128614932883128610242906
:100128004B08043A031D99289A28A9280030051A73
:1001380004308D000D08CC04051AA328A6288312C4
:100148000615A8288312061124294B08053A031D11
:10015800AE28AF28BE280030051A08308D000D08DB
:10016800CC04051AB828BB2883128615BD2883122B
:10017800861124294B08063A031DC328C428D3280E
:100188000030051A10308D000D08CC04051ACD2852
:10019800D02883120616D2288312061224294B0867
:1001A800073A031DD828D928E8280030051A203036
:1001B8008D000D08CC04051AE228E528831286165E
:1001C800E7288312861224294B08083A031DED28D4
:1001D800EE28FD280030051A40308D000D08CC04AB
:1001E800051AF728FA2883120617FC288312061323
:1001F80024294B08093A031D022903291229003032
:10020800051A80308D000D08CC04051A0C290F2919
:100218008312861711298312861324294B080A3A58
:10022800031D17291829192924294B080B3A031DDE
:100238001E291F2924290310003003180130CB0080
:100248008B101108CE0010088A000F0884000E08D1
:100258008300CF0E4F0E090020308B0087308316A5
:1002680081001F3085000130860083128B1708003B
:02400E00F13F80
:00000001FF
