:02000000A42B2F
:100748008301AD2B8B0180308316810086018501E2
:10075800080083128F0103148F0DA623B32B831275
:10076800900107301002031CBA2BBB2BBD2BD82BD2
:10077800D82B0F08860003108F0D06308E000E3020
:100788008D00B0308C008C0BC72B8D0BC72B8E0BBC
:10079800C72B013083128C000C0890070730100219
:1007A800031CD72BD82BBD2B900107301002031C3C
:1007B800DE2BDF2BE12BB32BB32B0F0886000310A6
:1007C8008F0C06308E000E308D00B0308C008C0BF4
:1007D800EB2B8D0BEB2B8E0BEB2B013083128C004C
:1007E8000C08900707301002031CFB2BFC2BE12B95
:0807F800B32BB32BB32B002837
:00000001FF
