:020000000F28C7
:10000800CF00030883128C0004088D000A088E00B4
:100018004E088F002C284D3084000030CE002B3045
:10002800CF0020208000840A04084E3A03192428AF
:10003800CF0A0319CE0A15284E088A004F088200F5
:100048002528452064308312810029280F28FF3491
:100058008B1E2F2830283A280B1D332834283A289D
:100068004D088600CD09643081000B110F08CE00C1
:100078000E088A000D0884000C088300CF0E4F0E6E
:10008800090020308B008530831681001F308500E1
:100098000310003003180130860083128B17080004
:02400E00F93F78
:00000001FF
