:020000000F28C7
:10000800CF00030883128E0004088F000A089000AE
:100018004E0891002A284D3084004E3014201C28A8
:1000280064008001840A04060319003404061528B4
:100038003E200310831200300318013086004D085B
:100048008C0003100C0C860023280F288B1C2D28ED
:100058002E28332801308D000D08CD078B1011088C
:10006800CE0010088A000F0884000E088300CF0E07
:100078004F0E090003100030031801308B00803048
:100088008316810010308500013086000117831225
:060098000B168B17080097
:02400E00F13F80
:00000001FF
