:020000000F28C7
:10000800CF00030883129000040891000A089200A8
:100018004E0893005F284D3084004E3014201C2871
:1000280064008001840A04060319003404061528B4
:1000380073200310831200300318013086004D0826
:100048008E0003100E0C860000308C0000308D00EE
:100058002D2801308C0703188D0A00308D070D08F4
:10006800803A8E008F300E02031D3C28A0300C020F
:10007800031C3F2840282D2800308C0000308D00BC
:10008800452801308C0703188D0A00308D070D08AC
:10009800803A8E008F300E02031D5428A0300C02C7
:1000A800031C57285828452803100030031801302E
:1000B800CD0023280F288B1C62286328682801306C
:1000C8008F000F08CD078B101308CE0012088A0086
:1000D8001108840010088300CF0E4F0E090003108A
:1000E8000030031801308B008030831681001030F7
:1000F800850001308600011783120B168B17080044
:02400E00F13F80
:00000001FF
