:020000000E28C8
:10000800FF000308F4000408F5000A08F6007E085B
:10001800F70066280F283A2048305A2065305A20C1
:100028006C305A206C305A206F305A200A305A20CF
:1000380008308312031386060030F0000030F10008
:1000480025280130F0070318F10A0030F10771087C
:10005800803AF2008F307202031D3428A0307002FB
:10006800031C37283828252810280E2803100030AC
:10007800031801308B0080308316031381000310AE
:100088000030031801308C0090308500073086005E
:100098002430980080308312031398001930831697
:1000A80003139900831203138B170800F3005D28CC
:1000B8005D28831203130C1E622863285C287308CA
:1000C800990008007708FE0076088A007508840001
:0A00D80074088300FF0E7F0E09007C
:02400E00293F48
:00000001FF
