:0600000000308A00102808
:10000800FF000308F0000408F1000A08F2007E0867
:10001800F3000A128A1146280A128A1113280A12B2
:100028008A111C200A128A1118280A128A1110280B
:100038008030831603138100031000300318013049
:1000480089000310003003180130850003100030C8
:1000580003180130870003108312031300300318BC
:1000680001308B000310831603130030031801308E
:100078008600031000300318013088008312031330
:100088008B1708007308FE0072088A007108840044
:0A00980070088300FF0E7F0E0900C0
:02400E003A3F37
:00000001FF
