:0600000000308A00102808
:10000800FF000308F3000408F4000A08F5007E085E
:10001800F6000A128A1164280A128A1113280A1291
:100028008A113A200A128A110130F200831203134E
:10003800720886070030F0000030F10023280130F4
:10004800F0070318F10A0030F1077108803AF2004E
:100058008F307202031D3228A0307002031C35282D
:100068003628232818280A128A1110288030831667
:1000780003138100031000300318013089000310B6
:1000880000300318013085000310003003180130D8
:1000980087000310831203130030031801308B000C
:1000A8000310831603130030031801308600031071
:1000B8000030031801308800831203138B170800DF
:1000C8007608FE0075088A007408840073088300A7
:0600D800FF0E7F0E09007F
:02400E00323F3F
:00000001FF
