:020000000E28C8
:10000800FF000308F3000408F4000A08F5007E085E
:10001800F6003D2883177B3084007E30152083014D
:100028001D2864008001840A0406031900340406AC
:1000380016280310003003180130F00069206920E9
:10004800831203137D1C29282A283B2886157C083F
:100058008D20031083120313003003180130FB00B6
:100068000310003003180130FC007D10861124288D
:100078000E28831203138B1C422843285E28FB0892
:10008800031D4728522809307B0203184C284D28A5
:1000980052280310051A0314FC0C59287B080A3A45
:1000A800031D5728582859287D140130F20072087A
:1000B800FB078B107608FE0075088A007408840018
:1000C80073088300FF0E7F0E0900031083120313C9
:1000D8000030031801308B00803083160313810031
:1000E80003100030031801308C0090308500073071
:1000F800860024309800803083120313980019304A
:100108008316031399000113831203130B168B171D
:100118000800F100902890280C1E932894288F2816
:06012800710899000800B7
:02400E00293F48
:00000001FF
