:0600000000308A00122806
:10000800FF00030883120313E0000408E1000A0854
:10001800E2007E08E3000A128A1183283030840047
:1000280053300A128A1127200A128A118317703056
:1000380084007E300A128A1127200A128A1183014D
:100048000A128A112F2864008001840A0406031901
:100058000034040628280A128A1162210A128A1119
:10006800831203130B16831203131F193C283D2810
:100078004B280C1B402841284B280A128A110F22B2
:100088000A128A110A128A1196210A128A110A1270
:100098008A11F5210A128A11003A031954285528A1
:1000A8007F280A128A11D8210A128A11831203138F
:1000B8005708D301D3075808D401D407530883132A
:1000C8000A128A1104220A128A118312031354088D
:1000D8000A128A1104220A128A1183120313413068
:1000E800D600EE30D500D50B7728D60B77286400DC
:1000F80083120313081337280A128A111228831649
:1001080003130C1F882889289728831203130C1FB0
:100118008E288F2897280A128A11EC200A128A1131
:10012800831203130C13831603130C1C9C289D289D
:10013800A528831203130C1CA228A328A528880924
:100148000C1083128B1CA928AA28B2280A128A111B
:100158002D210A128A11831203138B108B1DB528C7
:10016800B628E1280B1CB928BA28E1288230DF001C
:10017800DD30DE00DE0BBE28DF0BBE28C3281130C1
:1001880083120313DC000608DE0004300310DE0CC3
:10019800FF3E031DCA285E08DF005F08DD005C081B
:1001A800EB01EB075D08EC01EC070A128A11B92193
:1001B8000A128A11831203130B106308FE006208E7
:1001C8008A006108840060088300FF0E7F0E090022
:1001D8001E08E5003208703E84000008E400650847
:1001E8008313E6006508E700E608031DFC28FE28DF
:1001F8000130E6026708FF3A031903290429082990
:100208000130EA006A08E70766086402031C0D2942
:100218000E291429640867020318132914292C29A4
:100228006508EA003208703E84006A0880003208D7
:10023800E8006508EA006A08E9006808EB01EB07CE
:100248006908EC01EC070A128A11B9210A128A110D
:100258000800031086180314FB0C0130E40064083E
:10026800F8077808083A031D3A293B2961297D1CBB
:100278003E293F294F297B08E4006408B100300873
:10028800EB01EB073108EC01EC070A128A11B921DE
:100298000A128A1153297B08E4006408B00003108D
:1002A80083120313003003180130F80003100030E4
:1002B80003180130FB000130FD060800803083166A
:1002C8000313810041308C00073089002F308500EE
:1002D800C03087004830831203138B0081309F00A1
:1002E8000310831603130030031801309F00F33006
:1002F800860003100030031801308800353083125F
:10030800031390002430831603139800803083125F
:100318000313980081308316031399008312031383
:100328008B170800C73083120313D70057089F059F
:100338003208D70002300310D70DFF3E031D9F2956
:100348000310570DD80058089F040C138316031385
:100358000C17831203130B178B172130D700D70BF9
:10036800B329831203131F1508007C08ED006D07DD
:10037800333E84006B0883138000840A6C08800075
:100388007C08013EED006D08FA000F30ED006D08A5
:10039800FA057A0879060319D229D329D7297A08C0
:1003A800ED006D08FC000800831203137908DB00D8
:1003B8005B07333E840083130008D900840A0008D1
:1003C800DA000130DB005B08F9070F30DB005B085F
:1003D800F9055908D701D7075A08D801D807F429C9
:1003E8000800831203137C0879020318FC29FD29ED
:1003F800002A79087C02032A7C087902032A08006B
:10040800D700072A072A0C1E0A2A0B2A062A570889
:100418008313990008000130D7005708B207073046
:08042800D7005708B2050800D7
:02400E00323F3F
:00000001FF
