:020000000E28C8
:10000800FF000308F1000408F2000A08F3007E0864
:10001800F400302883177C3084007E30152083015B
:100028001D2864008001840A0406031900340406AC
:1000380016284D20831203137D1C232824282E28DC
:1000480086157C0885000310003003180130FC0079
:100058007D1086151E280E28831603138C1E35283E
:1000680036284228831203138C1E3B283C2842283A
:100078001A08F0007008FC007D148C127408FE0049
:1000880073088A007208840071088300FF0E7F0ECF
:10009800090040308B008030831603138100203024
:1000A8008C0080308500063086000430980090303F
:1000B80083120313980019308316031399008312CF
:0600C80003138B17080072
:02400E00293F48
:00000001FF
