:0600000000308A00122806
:10000800FF00030883120313E5000408E6000A084A
:10001800E7007E08E8000A128A111A2A453084008F
:1000280055300A128A111D200A128A110A128A11E1
:10003800252864008001840A040603190034040694
:100048001E280A128A11CE210A128A110730831635
:1000580003139C00831203130608D5005508831365
:10006800DE0009300A128A112B210A128A11831222
:10007800031305160310003003180130D600442876
:10008800560883130A128A1188210A128A118312C8
:1000980003135E08D701D7075F08D801D8075608A9
:1000A8008313D9005907453E84000008DA0001305F
:1000B80084070008DB005A08FE3EDC005B080318D2
:1000C800013EFF3EDD005D085802031D6D285C08F7
:1000D8005702031C702871288E285608D900590722
:1000E800453E84000008DA00013084070008DB0080
:1000F8005A08023EDC005B080318013E003EDD00A2
:1001080058085D02031D8A2857085C0203188D28C9
:100118008E28A4285608D9005907453E8400570858
:100128008000840A580880005708DE01DE07580856
:10013800DF01DF0756080A128A11CC200A128A1139
:10014800013083120313D9005908D6070630560226
:10015800031CAF28B02844280608D5005508831387
:10016800DE0009300A128A112B210A128A110A129A
:100178008A110E220A128A118312031305120A1217
:100188008A110E220A128A113B280A128A11122891
:10019800E000FF300A128A11FF210A128A11831225
:1001A80003134130E200EE30E100E10BD928E20B05
:1001B800D928640083120313600883130A128A1172
:1001C800FF210A128A11831203134130E200EE3034
:1001D800E100E10BED28E20BED2864008312031324
:1001E8005F080A128A11FF210A128A118312031367
:1001F8004130E200EE30E100E10B0029E20B00297A
:100208006400831203135E0883130A128A11FF2104
:100218000A128A11831203134130E200EE30E10022
:10022800E10B1429E20B14296400FE300A128A112A
:10023800FF210A128A11831203134130E200EE30C3
:10024800E100E10B2529E20B252964000800DF0005
:10025800FF300A128A11FF210A128A11831203132E
:100268004130E100EE30E000E00B3829E10B38299D
:100278006400831203135F0883130A128A11FF2193
:100288000A128A11831203134130E100EE30E000B4
:10029800E00B4C29E10B4C29640000300A128A114A
:1002A800FF210A128A11831203134130E100EE3054
:1002B800E000E00B5D29E10B5D2964008312031364
:1002C8005E0883130A128A11FF210A128A11831207
:1002D80003134130E100EE30E000E00B7129E10B3F
:1002E80071296400FE300A128A11FF210A128A114C
:1002F800831203134130E100EE30E000E00B822965
:10030800E10B822964000800E0000730E30063087D
:10031800E005C730E30063089F056008E30002308A
:100328000310E30DFF3E031D94290310630DE40041
:1003380064089F042130E300E30BA0298312031310
:100348001F15A729A7291F19AA29AB29A6291E08FD
:10035800E300E401083084000310E30DE40D840B8E
:10036800B02900306305E100FF306405E200831620
:1003780003131E0883120313E300E4016308E10476
:100388006408E2046108DE01DE076208DF01DF07B6
:10039800CD29080080308316031381000310003034
:1003A800031801308C00073089002F308500C030D9
:1003B80087000310831203130030031801308B00E9
:1003C80081309F008030831603139F00FF30860022
:1003D8000310003003180130880024309800803062
:1003E8008312031398008130831603139900831234
:1003F80003138B17080083120313E300042A042A4B
:10040800831203130C1E092A0A2A032A630883137A
:1004180099000800831203138230DF00DD30DE000C
:10042800DE0B142ADF0B142A192A08006808FE00BC
:1004380067088A006608840065088300FF0E7F0E3F
:020448000900A9
:02400E00323F3F
:00000001FF
